{
  "address": "0x3EcBa8293465Fa661E502F256DE1B44e7d7a7244",
  "abi": [
    {
      "inputs": [],
      "stateMutability": "nonpayable",
      "type": "constructor"
    },
    {
      "anonymous": false,
      "inputs": [
        {
          "indexed": true,
          "internalType": "address",
          "name": "owner",
          "type": "address"
        },
        {
          "indexed": true,
          "internalType": "address",
          "name": "spender",
          "type": "address"
        },
        {
          "indexed": false,
          "internalType": "uint256",
          "name": "value",
          "type": "uint256"
        }
      ],
      "name": "Approval",
      "type": "event"
    },
    {
      "anonymous": false,
      "inputs": [
        {
          "indexed": false,
          "internalType": "address",
          "name": "monetaryPolicy",
          "type": "address"
        }
      ],
      "name": "LogMonetaryPolicyUpdated",
      "type": "event"
    },
    {
      "anonymous": false,
      "inputs": [
        {
          "indexed": true,
          "internalType": "uint256",
          "name": "epoch",
          "type": "uint256"
        },
        {
          "indexed": false,
          "internalType": "uint256",
          "name": "totalSupply",
          "type": "uint256"
        }
      ],
      "name": "LogRebase",
      "type": "event"
    },
    {
      "anonymous": false,
      "inputs": [
        {
          "indexed": true,
          "internalType": "address",
          "name": "previousOwner",
          "type": "address"
        },
        {
          "indexed": true,
          "internalType": "address",
          "name": "newOwner",
          "type": "address"
        }
      ],
      "name": "OwnershipTransferred",
      "type": "event"
    },
    {
      "anonymous": false,
      "inputs": [
        {
          "indexed": true,
          "internalType": "address",
          "name": "from",
          "type": "address"
        },
        {
          "indexed": true,
          "internalType": "address",
          "name": "to",
          "type": "address"
        },
        {
          "indexed": false,
          "internalType": "uint256",
          "name": "value",
          "type": "uint256"
        }
      ],
      "name": "Transfer",
      "type": "event"
    },
    {
      "inputs": [],
      "name": "DOMAIN_SEPARATOR",
      "outputs": [
        {
          "internalType": "bytes32",
          "name": "",
          "type": "bytes32"
        }
      ],
      "stateMutability": "view",
      "type": "function"
    },
    {
      "inputs": [],
      "name": "PERMIT_TYPEHASH",
      "outputs": [
        {
          "internalType": "bytes32",
          "name": "",
          "type": "bytes32"
        }
      ],
      "stateMutability": "view",
      "type": "function"
    },
    {
      "inputs": [
        {
          "internalType": "address",
          "name": "owner_",
          "type": "address"
        },
        {
          "internalType": "address",
          "name": "spender",
          "type": "address"
        }
      ],
      "name": "allowance",
      "outputs": [
        {
          "internalType": "uint256",
          "name": "",
          "type": "uint256"
        }
      ],
      "stateMutability": "view",
      "type": "function"
    },
    {
      "inputs": [
        {
          "internalType": "address",
          "name": "spender",
          "type": "address"
        },
        {
          "internalType": "uint256",
          "name": "value",
          "type": "uint256"
        }
      ],
      "name": "approve",
      "outputs": [
        {
          "internalType": "bool",
          "name": "",
          "type": "bool"
        }
      ],
      "stateMutability": "nonpayable",
      "type": "function"
    },
    {
      "inputs": [
        {
          "internalType": "address",
          "name": "who",
          "type": "address"
        }
      ],
      "name": "balanceOf",
      "outputs": [
        {
          "internalType": "uint256",
          "name": "",
          "type": "uint256"
        }
      ],
      "stateMutability": "view",
      "type": "function"
    },
    {
      "inputs": [],
      "name": "circulatingSupply",
      "outputs": [
        {
          "internalType": "uint256",
          "name": "",
          "type": "uint256"
        }
      ],
      "stateMutability": "view",
      "type": "function"
    },
    {
      "inputs": [],
      "name": "decimals",
      "outputs": [
        {
          "internalType": "uint8",
          "name": "",
          "type": "uint8"
        }
      ],
      "stateMutability": "view",
      "type": "function"
    },
    {
      "inputs": [
        {
          "internalType": "address",
          "name": "spender",
          "type": "address"
        },
        {
          "internalType": "uint256",
          "name": "subtractedValue",
          "type": "uint256"
        }
      ],
      "name": "decreaseAllowance",
      "outputs": [
        {
          "internalType": "bool",
          "name": "",
          "type": "bool"
        }
      ],
      "stateMutability": "nonpayable",
      "type": "function"
    },
    {
      "inputs": [
        {
          "internalType": "address",
          "name": "spender",
          "type": "address"
        },
        {
          "internalType": "uint256",
          "name": "addedValue",
          "type": "uint256"
        }
      ],
      "name": "increaseAllowance",
      "outputs": [
        {
          "internalType": "bool",
          "name": "",
          "type": "bool"
        }
      ],
      "stateMutability": "nonpayable",
      "type": "function"
    },
    {
      "inputs": [],
      "name": "lockStakingContract",
      "outputs": [
        {
          "internalType": "address",
          "name": "",
          "type": "address"
        }
      ],
      "stateMutability": "view",
      "type": "function"
    },
    {
      "inputs": [],
      "name": "monetaryPolicy",
      "outputs": [
        {
          "internalType": "address",
          "name": "",
          "type": "address"
        }
      ],
      "stateMutability": "view",
      "type": "function"
    },
    {
      "inputs": [],
      "name": "name",
      "outputs": [
        {
          "internalType": "string",
          "name": "",
          "type": "string"
        }
      ],
      "stateMutability": "view",
      "type": "function"
    },
    {
      "inputs": [
        {
          "internalType": "address",
          "name": "owner",
          "type": "address"
        }
      ],
      "name": "nonces",
      "outputs": [
        {
          "internalType": "uint256",
          "name": "",
          "type": "uint256"
        }
      ],
      "stateMutability": "view",
      "type": "function"
    },
    {
      "inputs": [],
      "name": "owner",
      "outputs": [
        {
          "internalType": "address",
          "name": "",
          "type": "address"
        }
      ],
      "stateMutability": "view",
      "type": "function"
    },
    {
      "inputs": [
        {
          "internalType": "address",
          "name": "owner",
          "type": "address"
        },
        {
          "internalType": "address",
          "name": "spender",
          "type": "address"
        },
        {
          "internalType": "uint256",
          "name": "amount",
          "type": "uint256"
        },
        {
          "internalType": "uint256",
          "name": "deadline",
          "type": "uint256"
        },
        {
          "internalType": "uint8",
          "name": "v",
          "type": "uint8"
        },
        {
          "internalType": "bytes32",
          "name": "r",
          "type": "bytes32"
        },
        {
          "internalType": "bytes32",
          "name": "s",
          "type": "bytes32"
        }
      ],
      "name": "permit",
      "outputs": [],
      "stateMutability": "nonpayable",
      "type": "function"
    },
    {
      "inputs": [
        {
          "internalType": "uint256",
          "name": "taoProfit",
          "type": "uint256"
        }
      ],
      "name": "rebase",
      "outputs": [
        {
          "internalType": "uint256",
          "name": "",
          "type": "uint256"
        }
      ],
      "stateMutability": "nonpayable",
      "type": "function"
    },
    {
      "inputs": [],
      "name": "renounceOwnership",
      "outputs": [],
      "stateMutability": "nonpayable",
      "type": "function"
    },
    {
      "inputs": [
        {
          "internalType": "address",
          "name": "newLockStakingContract_",
          "type": "address"
        }
      ],
      "name": "setLockStakingContract",
      "outputs": [],
      "stateMutability": "nonpayable",
      "type": "function"
    },
    {
      "inputs": [
        {
          "internalType": "address",
          "name": "monetaryPolicy_",
          "type": "address"
        }
      ],
      "name": "setMonetaryPolicy",
      "outputs": [],
      "stateMutability": "nonpayable",
      "type": "function"
    },
    {
      "inputs": [
        {
          "internalType": "address",
          "name": "newStakingContract_",
          "type": "address"
        }
      ],
      "name": "setStakingContract",
      "outputs": [],
      "stateMutability": "nonpayable",
      "type": "function"
    },
    {
      "inputs": [],
      "name": "stakingContract",
      "outputs": [
        {
          "internalType": "address",
          "name": "",
          "type": "address"
        }
      ],
      "stateMutability": "view",
      "type": "function"
    },
    {
      "inputs": [],
      "name": "symbol",
      "outputs": [
        {
          "internalType": "string",
          "name": "",
          "type": "string"
        }
      ],
      "stateMutability": "view",
      "type": "function"
    },
    {
      "inputs": [],
      "name": "totalSupply",
      "outputs": [
        {
          "internalType": "uint256",
          "name": "",
          "type": "uint256"
        }
      ],
      "stateMutability": "view",
      "type": "function"
    },
    {
      "inputs": [
        {
          "internalType": "address",
          "name": "to",
          "type": "address"
        },
        {
          "internalType": "uint256",
          "name": "value",
          "type": "uint256"
        }
      ],
      "name": "transfer",
      "outputs": [
        {
          "internalType": "bool",
          "name": "",
          "type": "bool"
        }
      ],
      "stateMutability": "nonpayable",
      "type": "function"
    },
    {
      "inputs": [
        {
          "internalType": "address",
          "name": "from",
          "type": "address"
        },
        {
          "internalType": "address",
          "name": "to",
          "type": "address"
        },
        {
          "internalType": "uint256",
          "name": "value",
          "type": "uint256"
        }
      ],
      "name": "transferFrom",
      "outputs": [
        {
          "internalType": "bool",
          "name": "",
          "type": "bool"
        }
      ],
      "stateMutability": "nonpayable",
      "type": "function"
    },
    {
      "inputs": [
        {
          "internalType": "address",
          "name": "newOwner_",
          "type": "address"
        }
      ],
      "name": "transferOwnership",
      "outputs": [],
      "stateMutability": "nonpayable",
      "type": "function"
    }
  ],
  "transactionHash": "0xe6e60e9d32012e45597e0e5608d8df1ffa2f2cf7d66ac58fca5276d3486358dc",
  "args": [],
  "solcInputHash": "d94f11c65edc1679c6fe73651bc05f74",
  "bytecode": "0x60806040523480156200001157600080fd5b50604080518082018252600a8152695374616b65642054616f60b01b6020808301918252835180850190945260048452637354414f60e01b90840152815191929160099162000064916003919062000387565b5081516200007a90600490602085019062000387565b506005805460ff191660ff92909216919091179055504690507f8b73c3c69bb8fe3d512ecc4cf759cc79239f7b179b0ffacaa9a75d522b39400f620000be620001f5565b805160209182012060408051808201825260018152603160f81b90840152805180840194909452838101919091527fc89efdaa54c0f20c7adf612882df0950f5a951637e0307cdcb4c672f298b8bc6606084015260808301939093523060a0808401919091528351808403909101815260c0909201928390528151910120600755600880546001600160a01b0319163317908190556001600160a01b0316906000907f8be0079c531659141344cd1fd0a4f28419497f9722a3daafe3b4186f6b6457e0908290a36601c6bf526340006002819055620001b2906507326b47ffff19906200028f602090811b6200124617901c565b600c55600254604080519182525133916000917fddf252ad1be2c89b69c2b068fc378daa952ba7f163c4a11628f55a4df523b3ef9181900360200190a362000433565b60038054604080516020601f6002600019610100600188161502019095169490940493840181900481028201810190925282815260609390929091830182828015620002855780601f10620002595761010080835404028352916020019162000285565b820191906000526020600020905b8154815290600101906020018083116200026757829003601f168201915b5050505050905090565b6000620002d983836040518060400160405280601a81526020017f536166654d6174683a206469766973696f6e206279207a65726f000000000000815250620002e060201b60201c565b9392505050565b60008183620003705760405162461bcd60e51b81526004018080602001828103825283818151815260200191508051906020019080838360005b83811015620003345781810151838201526020016200031a565b50505050905090810190601f168015620003625780820380516001836020036101000a031916815260200191505b509250505060405180910390fd5b5060008385816200037d57fe5b0495945050505050565b828054600181600116156101000203166002900490600052602060002090601f016020900481019282620003bf57600085556200040a565b82601f10620003da57805160ff19168380011785556200040a565b828001600101855582156200040a579182015b828111156200040a578251825591602001919060010190620003ed565b50620004189291506200041c565b5090565b5b808211156200041857600081556001016200041d565b61163780620004436000396000f3fe608060405234801561001057600080fd5b506004361061018e5760003560e01c80638b5a6a08116100de578063a457c2d711610097578063d505accf11610071578063d505accf1461047b578063dd62ed3e146104cc578063ee99205c146104fa578063f2fde38b146105025761018e565b8063a457c2d714610406578063a9059cbb14610432578063bc4f2d6d1461045e5761018e565b80638b5a6a081461039a5780638da5cb5b146103c05780638e27d7d7146103c85780639358928b146103d057806395d89b41146103d85780639dd373b9146103e05761018e565b80633644e5151161014b57806370a082311161012557806370a082311461031e578063715018a61461034457806373857db81461034e5780637ecebe00146103745761018e565b80633644e515146102c657806339509351146102ce5780636583b70c146102fa5761018e565b806306fdde0314610193578063095ea7b31461021057806318160ddd1461025057806323b872dd1461026a57806330adf81f146102a0578063313ce567146102a8575b600080fd5b61019b610528565b6040805160208082528351818301528351919283929083019185019080838360005b838110156101d55781810151838201526020016101bd565b50505050905090810190601f1680156102025780820380516001836020036101000a031916815260200191505b509250505060405180910390f35b61023c6004803603604081101561022657600080fd5b506001600160a01b0381351690602001356105be565b604080519115158252519081900360200190f35b610258610613565b60408051918252519081900360200190f35b61023c6004803603606081101561028057600080fd5b506001600160a01b03813581169160208101359091169060400135610619565b6102586107c4565b6102b06107e8565b6040805160ff9092168252519081900360200190f35b6102586107f1565b61023c600480360360408110156102e457600080fd5b506001600160a01b0381351690602001356107f7565b610302610878565b604080516001600160a01b039092168252519081900360200190f35b6102586004803603602081101561033457600080fd5b50356001600160a01b0316610887565b61034c6108b7565b005b61034c6004803603602081101561036457600080fd5b50356001600160a01b031661094e565b6102586004803603602081101561038a57600080fd5b50356001600160a01b03166109bd565b61034c600480360360208110156103b057600080fd5b50356001600160a01b03166109de565b610302610a7f565b610302610a8e565b610258610a9d565b61019b610ac7565b61034c600480360360208110156103f657600080fd5b50356001600160a01b0316610b28565b61023c6004803603604081101561041c57600080fd5b506001600160a01b038135169060200135610bae565b61023c6004803603604081101561044857600080fd5b506001600160a01b038135169060200135610c85565b6102586004803603602081101561047457600080fd5b5035610dcf565b61034c600480360360e081101561049157600080fd5b506001600160a01b03813581169160208101359091169060408101359060608101359060ff6080820135169060a08101359060c00135610ef1565b610258600480360360408110156104e257600080fd5b506001600160a01b038135811691602001351661111e565b610302611149565b61034c6004803603602081101561051857600080fd5b50356001600160a01b0316611158565b60038054604080516020601f60026000196101006001881615020190951694909404938401819004810282018101909252828152606093909290918301828280156105b45780601f10610589576101008083540402835291602001916105b4565b820191906000526020600020905b81548152906001019060200180831161059757829003601f168201915b5050505050905090565b336000818152600e602090815260408083206001600160a01b038716808552908352818420869055815186815291519394909390926000805160206115e2833981519152928290030190a35060015b92915050565b60025490565b6000826001600160a01b03811661062f57600080fd5b6001600160a01b03811630141561064557600080fd5b600a546001600160a01b038581169116148061066e5750600b546001600160a01b038581169116145b6106a95760405162461bcd60e51b81526004018080602001828103825260418152602001806115046041913960600191505060405180910390fd5b6001600160a01b0385166000908152600e602090815260408083203384529091529020546106d7908461128f565b6001600160a01b0386166000908152600e60209081526040808320338452909152812091909155600c5461070c9085906112d1565b6001600160a01b0387166000908152600d6020526040902054909150610732908261128f565b6001600160a01b038088166000908152600d60205260408082209390935590871681522054610761908261132a565b6001600160a01b038087166000818152600d602090815260409182902094909455805188815290519193928a16927fddf252ad1be2c89b69c2b068fc378daa952ba7f163c4a11628f55a4df523b3ef92918290030190a350600195945050505050565b7f6e71edae12b1b97f4d1f60370fef10105fa2faae0126114a169c64845d6126c981565b60055460ff1690565b60075481565b336000908152600e602090815260408083206001600160a01b0386168452909152812054610825908361132a565b336000818152600e602090815260408083206001600160a01b0389168085529083529281902085905580519485525191936000805160206115e2833981519152929081900390910190a350600192915050565b600b546001600160a01b031681565b600c546001600160a01b0382166000908152600d602052604081205490916108af9190611246565b90505b919050565b6008546001600160a01b03163314610904576040805162461bcd60e51b815260206004820181905260248201526000805160206115c2833981519152604482015290519081900360640190fd5b6008546040516000916001600160a01b0316907f8be0079c531659141344cd1fd0a4f28419497f9722a3daafe3b4186f6b6457e0908390a3600880546001600160a01b0319169055565b6008546001600160a01b0316331461099b576040805162461bcd60e51b815260206004820181905260248201526000805160206115c2833981519152604482015290519081900360640190fd5b600b80546001600160a01b0319166001600160a01b0392909216919091179055565b6001600160a01b03811660009081526006602052604081206108af90611384565b6008546001600160a01b03163314610a2b576040805162461bcd60e51b815260206004820181905260248201526000805160206115c2833981519152604482015290519081900360640190fd5b600980546001600160a01b0383166001600160a01b0319909116811790915560408051918252517f0e6961f1a1afb87eaf51fd64f22ddc10062e23aa7838eac5d0bdf140bfd389729181900360200190a150565b6008546001600160a01b031690565b6009546001600160a01b031681565b600a54600090610ac290610ab9906001600160a01b0316610887565b6002549061128f565b905090565b60048054604080516020601f60026000196101006001881615020190951694909404938401819004810282018101909252828152606093909290918301828280156105b45780601f10610589576101008083540402835291602001916105b4565b6008546001600160a01b03163314610b75576040805162461bcd60e51b815260206004820181905260248201526000805160206115c2833981519152604482015290519081900360640190fd5b600a80546001600160a01b0319166001600160a01b039283161790819055166000908152600d602052604090206507326b47ffff199055565b336000908152600e602090815260408083206001600160a01b0386168452909152812054808310610c0257336000908152600e602090815260408083206001600160a01b0388168452909152812055610c31565b610c0c818461128f565b336000908152600e602090815260408083206001600160a01b03891684529091529020555b336000818152600e602090815260408083206001600160a01b0389168085529083529281902054815190815290519293926000805160206115e2833981519152929181900390910190a35060019392505050565b6000826001600160a01b038116610c9b57600080fd5b6001600160a01b038116301415610cb157600080fd5b600a546001600160a01b0316331480610cd45750600b546001600160a01b031633145b610d0f5760405162461bcd60e51b815260040180806020018281038252603b815260200180611566603b913960400191505060405180910390fd5b6000610d26600c54856112d190919063ffffffff16565b336000908152600d6020526040902054909150610d43908261128f565b336000908152600d6020526040808220929092556001600160a01b03871681522054610d6f908261132a565b6001600160a01b0386166000818152600d60209081526040918290209390935580518781529051919233927fddf252ad1be2c89b69c2b068fc378daa952ba7f163c4a11628f55a4df523b3ef9281900390910190a3506001949350505050565b6009546000906001600160a01b03163314610de957600080fd5b600082610e3257600254604080519182525142917f72725a3b1e5bd622d6bcd1339bb31279c351abe8f541ac7fd320f24e1b1641f2919081900360200190a250506002546108b2565b6000610e3c610a9d565b1115610e6857610e61610e4d610a9d565b600254610e5b9086906112d1565b90611246565b9050610e6b565b50815b600254610e78908261132a565b60028190556001600160801b031015610e97576001600160801b036002555b600254610eac906507326b47ffff1990611246565b600c55600254604080519182525142917f72725a3b1e5bd622d6bcd1339bb31279c351abe8f541ac7fd320f24e1b1641f2919081900360200190a25050600254919050565b83421115610f46576040805162461bcd60e51b815260206004820152601860248201527f5065726d69743a206578706972656420646561646c696e650000000000000000604482015290519081900360640190fd5b6001600160a01b03871660009081526006602052604081207f6e71edae12b1b97f4d1f60370fef10105fa2faae0126114a169c64845d6126c990899089908990610f8f90611384565b604080516020808201979097526001600160a01b0395861681830152939094166060840152608083019190915260a082015260c08082018990528251808303909101815260e08201835280519084012060075461190160f01b610100840152610102830152610122808301829052835180840390910181526101428301808552815191860191909120600091829052610162840180865281905260ff8a166101828501526101a284018990526101c28401889052935191955092936001926101e280820193601f1981019281900390910190855afa158015611075573d6000803e3d6000fd5b5050604051601f1901519150506001600160a01b038116158015906110ab5750896001600160a01b0316816001600160a01b0316145b6110e65760405162461bcd60e51b81526004018080602001828103825260218152602001806115456021913960400191505060405180910390fd5b6001600160a01b038a16600090815260066020526040902061110790611388565b6111128a8a8a611391565b50505050505050505050565b6001600160a01b039182166000908152600e6020908152604080832093909416825291909152205490565b600a546001600160a01b031681565b6008546001600160a01b031633146111a5576040805162461bcd60e51b815260206004820181905260248201526000805160206115c2833981519152604482015290519081900360640190fd5b6001600160a01b0381166111ea5760405162461bcd60e51b81526004018080602001828103825260268152602001806114de6026913960400191505060405180910390fd5b6008546040516001600160a01b038084169216907f8be0079c531659141344cd1fd0a4f28419497f9722a3daafe3b4186f6b6457e090600090a3600880546001600160a01b0319166001600160a01b0392909216919091179055565b600061128883836040518060400160405280601a81526020017f536166654d6174683a206469766973696f6e206279207a65726f0000000000008152506113e1565b9392505050565b600061128883836040518060400160405280601e81526020017f536166654d6174683a207375627472616374696f6e206f766572666c6f770000815250611483565b6000826112e05750600061060d565b828202828482816112ed57fe5b04146112885760405162461bcd60e51b81526004018080602001828103825260218152602001806115a16021913960400191505060405180910390fd5b600082820183811015611288576040805162461bcd60e51b815260206004820152601b60248201527f536166654d6174683a206164646974696f6e206f766572666c6f770000000000604482015290519081900360640190fd5b5490565b80546001019055565b6001600160a01b038084166000818152600e6020908152604080832094871680845294825291829020859055815185815291516000805160206115e28339815191529281900390910190a3505050565b6000818361146d5760405162461bcd60e51b81526004018080602001828103825283818151815260200191508051906020019080838360005b8381101561143257818101518382015260200161141a565b50505050905090810190601f16801561145f5780820380516001836020036101000a031916815260200191505b509250505060405180910390fd5b50600083858161147957fe5b0495945050505050565b600081848411156114d55760405162461bcd60e51b815260206004820181815283516024840152835190928392604490910191908501908083836000831561143257818101518382015260200161141a565b50505090039056fe4f776e61626c653a206e6577206f776e657220697320746865207a65726f20616464726573737472616e736665722066726f6d206e6f7420746f207374616b696e6720636f6e7472616374206f7220746f206c6f636b207374616b696e6720636f6e74726163745a65726f537761705065726d69743a20496e76616c6964207369676e61747572657472616e73666572206e6f742066726f6d207374616b696e6720636f6e7472616374206f72206c6f636b207374616b696e6720636f6e7472616374536166654d6174683a206d756c7469706c69636174696f6e206f766572666c6f774f776e61626c653a2063616c6c6572206973206e6f7420746865206f776e65728c5be1e5ebec7d5bd14f71427d1e84f3dd0314c0f7b2291e5b200ac8c7c3b925a2646970667358221220ec0d8eb35176fd9ec7361b932224b56503bc99c2e8faf620dbeae35f0ff10ffc64736f6c63430007050033",
  "devdoc": {
    "kind": "dev",
    "methods": {
      "decimals()": {
        "details": "Returns the number of decimals used to get its user representation. For example, if `decimals` equals `2`, a balance of `505` tokens should be displayed to a user as `5,05` (`505 / 10 ** 2`). Tokens usually opt for a value of 18, imitating the relationship between Ether and Wei. This is the value {ERC20} uses, unless {_setupDecimals} is called. NOTE: This information is only used for _display_ purposes: it in no way affects any of the arithmetic of the contract, including {IERC20-balanceOf} and {IERC20-transfer}."
      },
      "decreaseAllowance(address,uint256)": {
        "details": "Atomically decreases the allowance granted to `spender` by the caller. This is an alternative to {approve} that can be used as a mitigation for problems described in {IERC20-approve}. Emits an {Approval} event indicating the updated allowance. Requirements: - `spender` cannot be the zero address. - `spender` must have allowance for the caller of at least `subtractedValue`."
      },
      "increaseAllowance(address,uint256)": {
        "details": "Atomically increases the allowance granted to `spender` by the caller. This is an alternative to {approve} that can be used as a mitigation for problems described in {IERC20-approve}. Emits an {Approval} event indicating the updated allowance. Requirements: - `spender` cannot be the zero address."
      },
      "name()": {
        "details": "Returns the name of the token."
      },
      "nonces(address)": {
        "details": "See {IERC2612Permit-nonces}."
      },
      "owner()": {
        "details": "Returns the address of the current owner."
      },
      "permit(address,address,uint256,uint256,uint8,bytes32,bytes32)": {
        "details": "See {IERC2612Permit-permit}."
      },
      "renounceOwnership()": {
        "details": "Leaves the contract without owner. It will not be possible to call `onlyOwner` functions anymore. Can only be called by the current owner. NOTE: Renouncing ownership will leave the contract without an owner, thereby removing any functionality that is only available to the owner."
      },
      "symbol()": {
        "details": "Returns the symbol of the token, usually a shorter version of the name."
      },
      "totalSupply()": {
        "details": "See {IERC20-totalSupply}."
      },
      "transferOwnership(address)": {
        "details": "Transfers ownership of the contract to a new account (`newOwner`). Can only be called by the current owner."
      }
    },
    "version": 1
  },
  "userdoc": {
    "kind": "user",
    "methods": {},
    "version": 1
  },
  "storageLayout": {
    "storage": [
      {
        "astId": 1025,
        "contract": "contracts/Staking/sTaoToken.sol:sTaoToken",
        "label": "_balances",
        "offset": 0,
        "slot": "0",
        "type": "t_mapping(t_address,t_uint256)"
      },
      {
        "astId": 1031,
        "contract": "contracts/Staking/sTaoToken.sol:sTaoToken",
        "label": "_allowances",
        "offset": 0,
        "slot": "1",
        "type": "t_mapping(t_address,t_mapping(t_address,t_uint256))"
      },
      {
        "astId": 1033,
        "contract": "contracts/Staking/sTaoToken.sol:sTaoToken",
        "label": "_totalSupply",
        "offset": 0,
        "slot": "2",
        "type": "t_uint256"
      },
      {
        "astId": 1035,
        "contract": "contracts/Staking/sTaoToken.sol:sTaoToken",
        "label": "_name",
        "offset": 0,
        "slot": "3",
        "type": "t_string_storage"
      },
      {
        "astId": 1037,
        "contract": "contracts/Staking/sTaoToken.sol:sTaoToken",
        "label": "_symbol",
        "offset": 0,
        "slot": "4",
        "type": "t_string_storage"
      },
      {
        "astId": 1039,
        "contract": "contracts/Staking/sTaoToken.sol:sTaoToken",
        "label": "_decimals",
        "offset": 0,
        "slot": "5",
        "type": "t_uint8"
      },
      {
        "astId": 1586,
        "contract": "contracts/Staking/sTaoToken.sol:sTaoToken",
        "label": "_nonces",
        "offset": 0,
        "slot": "6",
        "type": "t_mapping(t_address,t_struct(Counter)1508_storage)"
      },
      {
        "astId": 1591,
        "contract": "contracts/Staking/sTaoToken.sol:sTaoToken",
        "label": "DOMAIN_SEPARATOR",
        "offset": 0,
        "slot": "7",
        "type": "t_bytes32"
      },
      {
        "astId": 836,
        "contract": "contracts/Staking/sTaoToken.sol:sTaoToken",
        "label": "_owner",
        "offset": 0,
        "slot": "8",
        "type": "t_address"
      },
      {
        "astId": 1759,
        "contract": "contracts/Staking/sTaoToken.sol:sTaoToken",
        "label": "monetaryPolicy",
        "offset": 0,
        "slot": "9",
        "type": "t_address"
      },
      {
        "astId": 1761,
        "contract": "contracts/Staking/sTaoToken.sol:sTaoToken",
        "label": "stakingContract",
        "offset": 0,
        "slot": "10",
        "type": "t_address"
      },
      {
        "astId": 1763,
        "contract": "contracts/Staking/sTaoToken.sol:sTaoToken",
        "label": "lockStakingContract",
        "offset": 0,
        "slot": "11",
        "type": "t_address"
      },
      {
        "astId": 1829,
        "contract": "contracts/Staking/sTaoToken.sol:sTaoToken",
        "label": "_gonsPerFragment",
        "offset": 0,
        "slot": "12",
        "type": "t_uint256"
      },
      {
        "astId": 1833,
        "contract": "contracts/Staking/sTaoToken.sol:sTaoToken",
        "label": "_gonBalances",
        "offset": 0,
        "slot": "13",
        "type": "t_mapping(t_address,t_uint256)"
      },
      {
        "astId": 1839,
        "contract": "contracts/Staking/sTaoToken.sol:sTaoToken",
        "label": "_allowedFragments",
        "offset": 0,
        "slot": "14",
        "type": "t_mapping(t_address,t_mapping(t_address,t_uint256))"
      }
    ],
    "types": {
      "t_address": {
        "encoding": "inplace",
        "label": "address",
        "numberOfBytes": "20"
      },
      "t_bytes32": {
        "encoding": "inplace",
        "label": "bytes32",
        "numberOfBytes": "32"
      },
      "t_mapping(t_address,t_mapping(t_address,t_uint256))": {
        "encoding": "mapping",
        "key": "t_address",
        "label": "mapping(address => mapping(address => uint256))",
        "numberOfBytes": "32",
        "value": "t_mapping(t_address,t_uint256)"
      },
      "t_mapping(t_address,t_struct(Counter)1508_storage)": {
        "encoding": "mapping",
        "key": "t_address",
        "label": "mapping(address => struct Counters.Counter)",
        "numberOfBytes": "32",
        "value": "t_struct(Counter)1508_storage"
      },
      "t_mapping(t_address,t_uint256)": {
        "encoding": "mapping",
        "key": "t_address",
        "label": "mapping(address => uint256)",
        "numberOfBytes": "32",
        "value": "t_uint256"
      },
      "t_string_storage": {
        "encoding": "bytes",
        "label": "string",
        "numberOfBytes": "32"
      },
      "t_struct(Counter)1508_storage": {
        "encoding": "inplace",
        "label": "struct Counters.Counter",
        "members": [
          {
            "astId": 1507,
            "contract": "contracts/Staking/sTaoToken.sol:sTaoToken",
            "label": "_value",
            "offset": 0,
            "slot": "0",
            "type": "t_uint256"
          }
        ],
        "numberOfBytes": "32"
      },
      "t_uint256": {
        "encoding": "inplace",
        "label": "uint256",
        "numberOfBytes": "32"
      },
      "t_uint8": {
        "encoding": "inplace",
        "label": "uint8",
        "numberOfBytes": "1"
      }
    }
  }
}