{
  "address": "0xc4727A8da9Bf274EA6d430f4e1a315C91daA8171",
  "abi": [
    {
      "inputs": [
        {
          "internalType": "contract IERC20",
          "name": "_busd",
          "type": "address"
        },
        {
          "internalType": "contract IERC20",
          "name": "_tao",
          "type": "address"
        }
      ],
      "stateMutability": "nonpayable",
      "type": "constructor"
    },
    {
      "anonymous": false,
      "inputs": [
        {
          "indexed": false,
          "internalType": "uint256",
          "name": "claimTimestamp",
          "type": "uint256"
        }
      ],
      "name": "ClaimUnlockedEvent",
      "type": "event"
    },
    {
      "anonymous": false,
      "inputs": [
        {
          "indexed": false,
          "internalType": "uint256",
          "name": "endTimestamp",
          "type": "uint256"
        }
      ],
      "name": "EndUnlockedEvent",
      "type": "event"
    },
    {
      "anonymous": false,
      "inputs": [
        {
          "indexed": true,
          "internalType": "address",
          "name": "previousOwner",
          "type": "address"
        },
        {
          "indexed": true,
          "internalType": "address",
          "name": "newOwner",
          "type": "address"
        }
      ],
      "name": "OwnershipTransferred",
      "type": "event"
    },
    {
      "anonymous": false,
      "inputs": [
        {
          "indexed": false,
          "internalType": "uint256",
          "name": "startTimestamp",
          "type": "uint256"
        }
      ],
      "name": "StartUnlockedEvent",
      "type": "event"
    },
    {
      "inputs": [],
      "name": "BUSD",
      "outputs": [
        {
          "internalType": "contract IERC20",
          "name": "",
          "type": "address"
        }
      ],
      "stateMutability": "view",
      "type": "function"
    },
    {
      "inputs": [],
      "name": "TAO",
      "outputs": [
        {
          "internalType": "contract IERC20",
          "name": "",
          "type": "address"
        }
      ],
      "stateMutability": "view",
      "type": "function"
    },
    {
      "inputs": [
        {
          "internalType": "address[]",
          "name": "_addresses",
          "type": "address[]"
        }
      ],
      "name": "addMultipleWhitelistedAddresses",
      "outputs": [],
      "stateMutability": "nonpayable",
      "type": "function"
    },
    {
      "inputs": [
        {
          "internalType": "address",
          "name": "_address",
          "type": "address"
        }
      ],
      "name": "addWhitelistedAddress",
      "outputs": [],
      "stateMutability": "nonpayable",
      "type": "function"
    },
    {
      "inputs": [
        {
          "internalType": "address",
          "name": "",
          "type": "address"
        }
      ],
      "name": "boughtTAO",
      "outputs": [
        {
          "internalType": "bool",
          "name": "",
          "type": "bool"
        }
      ],
      "stateMutability": "view",
      "type": "function"
    },
    {
      "inputs": [],
      "name": "busdRaised",
      "outputs": [
        {
          "internalType": "uint256",
          "name": "",
          "type": "uint256"
        }
      ],
      "stateMutability": "view",
      "type": "function"
    },
    {
      "inputs": [
        {
          "internalType": "uint256",
          "name": "_amountBUSD",
          "type": "uint256"
        }
      ],
      "name": "buy",
      "outputs": [
        {
          "internalType": "bool",
          "name": "",
          "type": "bool"
        }
      ],
      "stateMutability": "nonpayable",
      "type": "function"
    },
    {
      "inputs": [],
      "name": "claim",
      "outputs": [],
      "stateMutability": "nonpayable",
      "type": "function"
    },
    {
      "inputs": [],
      "name": "claimUnlocked",
      "outputs": [
        {
          "internalType": "bool",
          "name": "",
          "type": "bool"
        }
      ],
      "stateMutability": "view",
      "type": "function"
    },
    {
      "inputs": [
        {
          "internalType": "address",
          "name": "",
          "type": "address"
        }
      ],
      "name": "claimable",
      "outputs": [
        {
          "internalType": "uint256",
          "name": "",
          "type": "uint256"
        }
      ],
      "stateMutability": "view",
      "type": "function"
    },
    {
      "inputs": [
        {
          "internalType": "address",
          "name": "user",
          "type": "address"
        }
      ],
      "name": "claimableAmount",
      "outputs": [
        {
          "internalType": "uint256",
          "name": "",
          "type": "uint256"
        }
      ],
      "stateMutability": "view",
      "type": "function"
    },
    {
      "inputs": [],
      "name": "endUnlocked",
      "outputs": [
        {
          "internalType": "bool",
          "name": "",
          "type": "bool"
        }
      ],
      "stateMutability": "view",
      "type": "function"
    },
    {
      "inputs": [],
      "name": "getAllotmentPerBuyer",
      "outputs": [
        {
          "internalType": "uint256",
          "name": "",
          "type": "uint256"
        }
      ],
      "stateMutability": "view",
      "type": "function"
    },
    {
      "inputs": [
        {
          "internalType": "uint256",
          "name": "_taoTarget",
          "type": "uint256"
        },
        {
          "internalType": "uint256",
          "name": "_price",
          "type": "uint256"
        }
      ],
      "name": "initialize",
      "outputs": [
        {
          "internalType": "bool",
          "name": "",
          "type": "bool"
        }
      ],
      "stateMutability": "nonpayable",
      "type": "function"
    },
    {
      "inputs": [],
      "name": "isInitialized",
      "outputs": [
        {
          "internalType": "bool",
          "name": "",
          "type": "bool"
        }
      ],
      "stateMutability": "view",
      "type": "function"
    },
    {
      "inputs": [],
      "name": "owner",
      "outputs": [
        {
          "internalType": "address",
          "name": "",
          "type": "address"
        }
      ],
      "stateMutability": "view",
      "type": "function"
    },
    {
      "inputs": [],
      "name": "price",
      "outputs": [
        {
          "internalType": "uint256",
          "name": "",
          "type": "uint256"
        }
      ],
      "stateMutability": "view",
      "type": "function"
    },
    {
      "inputs": [
        {
          "internalType": "address",
          "name": "_address",
          "type": "address"
        }
      ],
      "name": "removeWhitelistedAddress",
      "outputs": [],
      "stateMutability": "nonpayable",
      "type": "function"
    },
    {
      "inputs": [],
      "name": "renounceOwnership",
      "outputs": [],
      "stateMutability": "nonpayable",
      "type": "function"
    },
    {
      "inputs": [
        {
          "internalType": "uint256",
          "name": "_price",
          "type": "uint256"
        }
      ],
      "name": "setPrice",
      "outputs": [],
      "stateMutability": "nonpayable",
      "type": "function"
    },
    {
      "inputs": [
        {
          "internalType": "uint256",
          "name": "_taoTarget",
          "type": "uint256"
        }
      ],
      "name": "setTaoTarget",
      "outputs": [],
      "stateMutability": "nonpayable",
      "type": "function"
    },
    {
      "inputs": [],
      "name": "startUnlocked",
      "outputs": [
        {
          "internalType": "bool",
          "name": "",
          "type": "bool"
        }
      ],
      "stateMutability": "view",
      "type": "function"
    },
    {
      "inputs": [],
      "name": "taoTarget",
      "outputs": [
        {
          "internalType": "uint256",
          "name": "",
          "type": "uint256"
        }
      ],
      "stateMutability": "view",
      "type": "function"
    },
    {
      "inputs": [],
      "name": "totalOwed",
      "outputs": [
        {
          "internalType": "uint256",
          "name": "",
          "type": "uint256"
        }
      ],
      "stateMutability": "view",
      "type": "function"
    },
    {
      "inputs": [],
      "name": "totalWhitelisted",
      "outputs": [
        {
          "internalType": "uint256",
          "name": "",
          "type": "uint256"
        }
      ],
      "stateMutability": "view",
      "type": "function"
    },
    {
      "inputs": [
        {
          "internalType": "address",
          "name": "newOwner",
          "type": "address"
        }
      ],
      "name": "transferOwnership",
      "outputs": [],
      "stateMutability": "nonpayable",
      "type": "function"
    },
    {
      "inputs": [],
      "name": "unlockClaim",
      "outputs": [],
      "stateMutability": "nonpayable",
      "type": "function"
    },
    {
      "inputs": [],
      "name": "unlockEnd",
      "outputs": [],
      "stateMutability": "nonpayable",
      "type": "function"
    },
    {
      "inputs": [],
      "name": "unlockStart",
      "outputs": [],
      "stateMutability": "nonpayable",
      "type": "function"
    },
    {
      "inputs": [
        {
          "internalType": "address",
          "name": "",
          "type": "address"
        }
      ],
      "name": "whitelistedAddresses",
      "outputs": [
        {
          "internalType": "bool",
          "name": "",
          "type": "bool"
        }
      ],
      "stateMutability": "view",
      "type": "function"
    },
    {
      "inputs": [],
      "name": "withdrawRemainingBusd",
      "outputs": [
        {
          "internalType": "bool",
          "name": "",
          "type": "bool"
        }
      ],
      "stateMutability": "nonpayable",
      "type": "function"
    }
  ],
  "transactionHash": "0x1ebace21ea0e1c6fc995b59f011e72f8b1b11714a2fb0a98155e3a42990cce9b",
  "args": [
    "0xA8E0f600624739d34F7569971dE7F1fCb0F9c5B6",
    "0xe3d50128f5f1559346A274B714627c0596C9e182"
  ],
  "solcInputHash": "045b2a3e9d357585d7b0d7c5159238d7",
  "bytecode": "0x608060405234801561001057600080fd5b50604051611c8c380380611c8c8339818101604052604081101561003357600080fd5b50805160209091015160006100466100cb565b600080546001600160a01b0319166001600160a01b0383169081178255604051929350917f8be0079c531659141344cd1fd0a4f28419497f9722a3daafe3b4186f6b6457e0908290a350600280546001600160a01b039384166001600160a01b03199182161790915560018054929093169116179055600060088190556009556100cf565b3390565b611bae806100de6000396000f3fe608060405234801561001057600080fd5b50600436106101e55760003560e01c8063715018a61161010f578063d0f3ca9a116100a2578063e7fa9f7d11610071578063e7fa9f7d1461047c578063f2fde38b14610484578063fe1cce9c146104aa578063feafaa6b146104b2576101e5565b8063d0f3ca9a1461042c578063d96a094a14610434578063e4a3011614610451578063e6e25d1014610474576101e5565b806391b7f5ed116100de57806391b7f5ed146103e2578063a035b1fe146103ff578063ab7db8c114610407578063b32cfa0714610424576101e5565b8063715018a6146103a4578063731f04a3146103ac57806389885049146103b45780638da5cb5b146103da576101e5565b8063402914f51161018757806350e497641161015657806350e49764146102e0578063524c9aa4146102e8578063530cd5ab146103585780636d64971c1461037e576101e5565b8063402914f5146102a257806345013546146102c8578063484f4ea9146102d05780634e71d92d146102d8576101e5565b80631d8e59d9116101c35780631d8e59d91461026257806329975b431461026a5780633029722614610292578063392e53cd1461029a576101e5565b806304072b20146101ea57806306c933d81461020457806316e178521461023e575b600080fd5b6101f26104ba565b60408051918252519081900360200190f35b61022a6004803603602081101561021a57600080fd5b50356001600160a01b03166104c0565b604080519115158252519081900360200190f35b6102466104d5565b604080516001600160a01b039092168252519081900360200190f35b61022a6104e4565b6102906004803603602081101561028057600080fd5b50356001600160a01b03166104f2565b005b6101f261058c565b61022a610592565b6101f2600480360360208110156102b857600080fd5b50356001600160a01b03166105a2565b61022a6105b4565b6102466105bd565b6102906105cc565b61022a6107ca565b610290600480360360208110156102fe57600080fd5b81019060208101813564010000000081111561031957600080fd5b82018360208201111561032b57600080fd5b8035906020019184602083028401116401000000008311171561034d57600080fd5b5090925090506107d9565b6102906004803603602081101561036e57600080fd5b50356001600160a01b03166108a6565b61022a6004803603602081101561039457600080fd5b50356001600160a01b0316610936565b61029061094b565b6101f26109f7565b6101f2600480360360208110156103ca57600080fd5b50356001600160a01b03166109fd565b610246610a18565b610290600480360360208110156103f857600080fd5b5035610a27565b6101f2610ae1565b6102906004803603602081101561041d57600080fd5b5035610ae7565b61022a610ba1565b6101f2610d4e565b61022a6004803603602081101561044a57600080fd5b5035610dda565b61022a6004803603604081101561046757600080fd5b5080359060200135611064565b610290611106565b6101f2611202565b6102906004803603602081101561049a57600080fd5b50356001600160a01b0316611208565b61029061130a565b61029061145f565b600a5481565b60036020526000908152604090205460ff1681565b6001546001600160a01b031681565b600b54610100900460ff1681565b6104fa6115ba565b6001600160a01b031661050b610a18565b6001600160a01b031614610554576040805162461bcd60e51b81526020600482018190526024820152600080516020611b2f833981519152604482015290519081900360640190fd5b6001600160a01b0381166000908152600360205260409020805460ff19166001908117909155600a54610586916115be565b600a5550565b60075481565b600b546301000000900460ff1681565b60056020526000908152604090205481565b600b5460ff1681565b6002546001600160a01b031681565b600b5462010000900460ff16610629576040805162461bcd60e51b815260206004820152601860248201527f636c61696d696e67206e6f7420616c6c6f776564207965740000000000000000604482015290519081900360640190fd5b3360009081526003602052604090205460ff16151560011461068c576040805162461bcd60e51b81526020600482015260176024820152761e5bdd48185c99481b9bdd081dda1a5d195b1a5cdd1959604a1b604482015290519081900360640190fd5b336000908152600560205260409020546106e0576040805162461bcd60e51b815260206004820152601060248201526f6e6f7468696e6720746f20636c61696d60801b604482015290519081900360640190fd5b3360009081526005602052604081208054919055600854610701908261161f565b6008556001546040805163a9059cbb60e01b81523360048201526024810184905290516001600160a01b039092169163a9059cbb916044808201926020929091908290030181600087803b15801561075857600080fd5b505af115801561076c573d6000803e3d6000fd5b505050506040513d602081101561078257600080fd5b50516107c7576040805162461bcd60e51b815260206004820152600f60248201526e6661696c656420746f20636c61696d60881b604482015290519081900360640190fd5b50565b600b5462010000900460ff1681565b6107e16115ba565b6001600160a01b03166107f2610a18565b6001600160a01b03161461083b576040805162461bcd60e51b81526020600482018190526024820152600080516020611b2f833981519152604482015290519081900360640190fd5b60005b818110156108915760016003600085858581811061085857fe5b602090810292909201356001600160a01b0316835250810191909152604001600020805460ff191691151591909117905560010161083e565b50600a5461089f90826115be565b600a555050565b6108ae6115ba565b6001600160a01b03166108bf610a18565b6001600160a01b031614610908576040805162461bcd60e51b81526020600482018190526024820152600080516020611b2f833981519152604482015290519081900360640190fd5b6001600160a01b0381166000908152600360205260409020805460ff19169055600a5461058690600161161f565b60046020526000908152604090205460ff1681565b6109536115ba565b6001600160a01b0316610964610a18565b6001600160a01b0316146109ad576040805162461bcd60e51b81526020600482018190526024820152600080516020611b2f833981519152604482015290519081900360640190fd5b600080546040516001600160a01b03909116907f8be0079c531659141344cd1fd0a4f28419497f9722a3daafe3b4186f6b6457e0908390a3600080546001600160a01b0319169055565b60095481565b6001600160a01b031660009081526005602052604090205490565b6000546001600160a01b031690565b610a2f6115ba565b6001600160a01b0316610a40610a18565b6001600160a01b031614610a89576040805162461bcd60e51b81526020600482018190526024820152600080516020611b2f833981519152604482015290519081900360640190fd5b600b5460ff1615610adc576040805162461bcd60e51b815260206004820152601860248201527750726573616c6520616c726561647920737461727465642160401b604482015290519081900360640190fd5b600655565b60065481565b610aef6115ba565b6001600160a01b0316610b00610a18565b6001600160a01b031614610b49576040805162461bcd60e51b81526020600482018190526024820152600080516020611b2f833981519152604482015290519081900360640190fd5b600b5460ff1615610b9c576040805162461bcd60e51b815260206004820152601860248201527750726573616c6520616c726561647920737461727465642160401b604482015290519081900360640190fd5b600755565b6000610bab6115ba565b6001600160a01b0316610bbc610a18565b6001600160a01b031614610c05576040805162461bcd60e51b81526020600482018190526024820152600080516020611b2f833981519152604482015290519081900360640190fd5b600b5460ff16610c5c576040805162461bcd60e51b815260206004820152601860248201527f70726573616c6520686173206e6f742073746172746564210000000000000000604482015290519081900360640190fd5b600b54610100900460ff16610cb8576040805162461bcd60e51b815260206004820152601a60248201527f70726573616c6520686173206e6f742079657420656e64656421000000000000604482015290519081900360640190fd5b600254604080516370a0823160e01b81523060048201529051610d489233926001600160a01b03909116916370a0823191602480820192602092909190829003018186803b158015610d0957600080fd5b505afa158015610d1d573d6000803e3d6000fd5b505050506040513d6020811015610d3357600080fd5b50516002546001600160a01b0316919061167c565b50600190565b600080600a5411610d9e576040805162461bcd60e51b8152602060048201526015602482015274139bd89bd91e481a5cc815da1a5d195b1a5cdd1959605a1b604482015290519081900360640190fd5b610dd5633b9aca00610dc9600654610dcf600a54610dc960085460075461161f90919063ffffffff16565b906116d3565b9061173a565b905090565b600b5460009060ff16610e34576040805162461bcd60e51b815260206004820152601b60248201527f70726573616c6520686173206e6f742079657420737461727465640000000000604482015290519081900360640190fd5b600b54610100900460ff1615610e89576040805162461bcd60e51b81526020600482015260156024820152741c1c995cd85b1948185b1c9958591e48195b991959605a1b604482015290519081900360640190fd5b3360009081526003602052604090205460ff161515600114610eec576040805162461bcd60e51b81526020600482015260176024820152761e5bdd48185c99481b9bdd081dda1a5d195b1a5cdd1959604a1b604482015290519081900360640190fd5b3360009081526004602052604090205460ff1615610f48576040805162461bcd60e51b8152602060048201526014602482015273105b1c9958591e4814185c9d1a58da5c185d195960621b604482015290519081900360640190fd5b610f50610d4e565b821115610f98576040805162461bcd60e51b8152602060048201526011602482015270135bdc99481d1a185b88185b1b1bdd1959607a1b604482015290519081900360640190fd5b336000818152600460205260409020805460ff19166001179055600254610fcd916001600160a01b0391909116903085611793565b611003633b9aca00610dcf610fed600654866116d390919063ffffffff16565b33600090815260056020526040902054906115be565b336000908152600560205260409020556006546110389061102f90633b9aca0090610dcf9086906116d3565b600854906115be565b60085560095461104890836115be565b600955600a5461105990600161161f565b600a55506001919050565b600061106e6115ba565b6001600160a01b031661107f610a18565b6001600160a01b0316146110c8576040805162461bcd60e51b81526020600482018190526024820152600080516020611b2f833981519152604482015290519081900360640190fd5b600b546301000000900460ff16156110df57600080fd5b5060078290556006819055600b805463ff0000001916630100000017905560015b92915050565b61110e6115ba565b6001600160a01b031661111f610a18565b6001600160a01b031614611168576040805162461bcd60e51b81526020600482018190526024820152600080516020611b2f833981519152604482015290519081900360640190fd5b600b54610100900460ff16156111be576040805162461bcd60e51b815260206004820152601660248201527550726573616c6520616c726561647920656e6465642160501b604482015290519081900360640190fd5b600b805461ff0019166101001790556040805142815290517fdbb898b65754de938e81c6a509625c23cc027521dca30ed62fce6f2e8f838c7a9181900360200190a1565b60085481565b6112106115ba565b6001600160a01b0316611221610a18565b6001600160a01b03161461126a576040805162461bcd60e51b81526020600482018190526024820152600080516020611b2f833981519152604482015290519081900360640190fd5b6001600160a01b0381166112af5760405162461bcd60e51b8152600401808060200182810382526026815260200180611ac26026913960400191505060405180910390fd5b600080546040516001600160a01b03808516939216917f8be0079c531659141344cd1fd0a4f28419497f9722a3daafe3b4186f6b6457e091a3600080546001600160a01b0319166001600160a01b0392909216919091179055565b6113126115ba565b6001600160a01b0316611323610a18565b6001600160a01b03161461136c576040805162461bcd60e51b81526020600482018190526024820152600080516020611b2f833981519152604482015290519081900360640190fd5b600b5460ff16156113bf576040805162461bcd60e51b815260206004820152601860248201527750726573616c6520616c726561647920737461727465642160401b604482015290519081900360640190fd5b600b546301000000900460ff1661141d576040805162461bcd60e51b815260206004820152601a60248201527f50726573616c65206973206e6f7420496e697469616c697a6564000000000000604482015290519081900360640190fd5b600b805460ff191660011790556040805142815290517f84e9d69e36bf0400bf55f47df29cb3bf3b4e5a1579629eadc03e106b95cf74269181900360200190a1565b6114676115ba565b6001600160a01b0316611478610a18565b6001600160a01b0316146114c1576040805162461bcd60e51b81526020600482018190526024820152600080516020611b2f833981519152604482015290519081900360640190fd5b600b54610100900460ff16611516576040805162461bcd60e51b815260206004820152601660248201527550726573616c6520686173206e6f7420656e6465642160501b604482015290519081900360640190fd5b600b5462010000900460ff1615611574576040805162461bcd60e51b815260206004820152601760248201527f436c61696d20616c726561647920756e6c6f636b656421000000000000000000604482015290519081900360640190fd5b600b805462ff00001916620100001790556040805142815290517fbf01c8d8fad1389764a49c6e5e5adf4be677b9063611e7354ffa2c3b342c76009181900360200190a1565b3390565b600082820183811015611618576040805162461bcd60e51b815260206004820152601b60248201527f536166654d6174683a206164646974696f6e206f766572666c6f770000000000604482015290519081900360640190fd5b9392505050565b600082821115611676576040805162461bcd60e51b815260206004820152601e60248201527f536166654d6174683a207375627472616374696f6e206f766572666c6f770000604482015290519081900360640190fd5b50900390565b604080516001600160a01b038416602482015260448082018490528251808303909101815260649091019091526020810180516001600160e01b031663a9059cbb60e01b1790526116ce9084906117f3565b505050565b6000808211611729576040805162461bcd60e51b815260206004820152601a60248201527f536166654d6174683a206469766973696f6e206279207a65726f000000000000604482015290519081900360640190fd5b81838161173257fe5b049392505050565b60008261174957506000611100565b8282028284828161175657fe5b04146116185760405162461bcd60e51b8152600401808060200182810382526021815260200180611b0e6021913960400191505060405180910390fd5b604080516001600160a01b0380861660248301528416604482015260648082018490528251808303909101815260849091019091526020810180516001600160e01b03166323b872dd60e01b1790526117ed9085906117f3565b50505050565b6060611848826040518060400160405280602081526020017f5361666545524332303a206c6f772d6c6576656c2063616c6c206661696c6564815250856001600160a01b03166118a49092919063ffffffff16565b8051909150156116ce5780806020019051602081101561186757600080fd5b50516116ce5760405162461bcd60e51b815260040180806020018281038252602a815260200180611b4f602a913960400191505060405180910390fd5b60606118b384846000856118bb565b949350505050565b6060824710156118fc5760405162461bcd60e51b8152600401808060200182810382526026815260200180611ae86026913960400191505060405180910390fd5b61190585611a17565b611956576040805162461bcd60e51b815260206004820152601d60248201527f416464726573733a2063616c6c20746f206e6f6e2d636f6e7472616374000000604482015290519081900360640190fd5b60006060866001600160a01b031685876040518082805190602001908083835b602083106119955780518252601f199092019160209182019101611976565b6001836020036101000a03801982511681845116808217855250505050505090500191505060006040518083038185875af1925050503d80600081146119f7576040519150601f19603f3d011682016040523d82523d6000602084013e6119fc565b606091505b5091509150611a0c828286611a1d565b979650505050505050565b3b151590565b60608315611a2c575081611618565b825115611a3c5782518084602001fd5b8160405162461bcd60e51b81526004018080602001828103825283818151815260200191508051906020019080838360005b83811015611a86578181015183820152602001611a6e565b50505050905090810190601f168015611ab35780820380516001836020036101000a031916815260200191505b509250505060405180910390fdfe4f776e61626c653a206e6577206f776e657220697320746865207a65726f2061646472657373416464726573733a20696e73756666696369656e742062616c616e636520666f722063616c6c536166654d6174683a206d756c7469706c69636174696f6e206f766572666c6f774f776e61626c653a2063616c6c6572206973206e6f7420746865206f776e65725361666545524332303a204552433230206f7065726174696f6e20646964206e6f742073756363656564a26469706673582212201785fde0817071b59ad7ea851d6c7d2488b4d0d1788f3fb1abf3d62c70d1348d64736f6c63430007050033",
  "devdoc": {
    "kind": "dev",
    "methods": {
      "owner()": {
        "details": "Returns the address of the current owner."
      },
      "renounceOwnership()": {
        "details": "Leaves the contract without owner. It will not be possible to call `onlyOwner` functions anymore. Can only be called by the current owner. NOTE: Renouncing ownership will leave the contract without an owner, thereby removing any functionality that is only available to the owner."
      },
      "transferOwnership(address)": {
        "details": "Transfers ownership of the contract to a new account (`newOwner`). Can only be called by the current owner."
      }
    },
    "version": 1
  },
  "userdoc": {
    "kind": "user",
    "methods": {},
    "version": 1
  },
  "storageLayout": {
    "storage": [
      {
        "astId": 10,
        "contract": "contracts/TaoPresale.sol:TaoPresale",
        "label": "_owner",
        "offset": 0,
        "slot": "0",
        "type": "t_address"
      },
      {
        "astId": 1095,
        "contract": "contracts/TaoPresale.sol:TaoPresale",
        "label": "TAO",
        "offset": 0,
        "slot": "1",
        "type": "t_contract(IERC20)545"
      },
      {
        "astId": 1097,
        "contract": "contracts/TaoPresale.sol:TaoPresale",
        "label": "BUSD",
        "offset": 0,
        "slot": "2",
        "type": "t_contract(IERC20)545"
      },
      {
        "astId": 1101,
        "contract": "contracts/TaoPresale.sol:TaoPresale",
        "label": "whitelistedAddresses",
        "offset": 0,
        "slot": "3",
        "type": "t_mapping(t_address,t_bool)"
      },
      {
        "astId": 1105,
        "contract": "contracts/TaoPresale.sol:TaoPresale",
        "label": "boughtTAO",
        "offset": 0,
        "slot": "4",
        "type": "t_mapping(t_address,t_bool)"
      },
      {
        "astId": 1109,
        "contract": "contracts/TaoPresale.sol:TaoPresale",
        "label": "claimable",
        "offset": 0,
        "slot": "5",
        "type": "t_mapping(t_address,t_uint256)"
      },
      {
        "astId": 1111,
        "contract": "contracts/TaoPresale.sol:TaoPresale",
        "label": "price",
        "offset": 0,
        "slot": "6",
        "type": "t_uint256"
      },
      {
        "astId": 1113,
        "contract": "contracts/TaoPresale.sol:TaoPresale",
        "label": "taoTarget",
        "offset": 0,
        "slot": "7",
        "type": "t_uint256"
      },
      {
        "astId": 1115,
        "contract": "contracts/TaoPresale.sol:TaoPresale",
        "label": "totalOwed",
        "offset": 0,
        "slot": "8",
        "type": "t_uint256"
      },
      {
        "astId": 1117,
        "contract": "contracts/TaoPresale.sol:TaoPresale",
        "label": "busdRaised",
        "offset": 0,
        "slot": "9",
        "type": "t_uint256"
      },
      {
        "astId": 1119,
        "contract": "contracts/TaoPresale.sol:TaoPresale",
        "label": "totalWhitelisted",
        "offset": 0,
        "slot": "10",
        "type": "t_uint256"
      },
      {
        "astId": 1121,
        "contract": "contracts/TaoPresale.sol:TaoPresale",
        "label": "startUnlocked",
        "offset": 0,
        "slot": "11",
        "type": "t_bool"
      },
      {
        "astId": 1123,
        "contract": "contracts/TaoPresale.sol:TaoPresale",
        "label": "endUnlocked",
        "offset": 1,
        "slot": "11",
        "type": "t_bool"
      },
      {
        "astId": 1125,
        "contract": "contracts/TaoPresale.sol:TaoPresale",
        "label": "claimUnlocked",
        "offset": 2,
        "slot": "11",
        "type": "t_bool"
      },
      {
        "astId": 1127,
        "contract": "contracts/TaoPresale.sol:TaoPresale",
        "label": "isInitialized",
        "offset": 3,
        "slot": "11",
        "type": "t_bool"
      }
    ],
    "types": {
      "t_address": {
        "encoding": "inplace",
        "label": "address",
        "numberOfBytes": "20"
      },
      "t_bool": {
        "encoding": "inplace",
        "label": "bool",
        "numberOfBytes": "1"
      },
      "t_contract(IERC20)545": {
        "encoding": "inplace",
        "label": "contract IERC20",
        "numberOfBytes": "20"
      },
      "t_mapping(t_address,t_bool)": {
        "encoding": "mapping",
        "key": "t_address",
        "label": "mapping(address => bool)",
        "numberOfBytes": "32",
        "value": "t_bool"
      },
      "t_mapping(t_address,t_uint256)": {
        "encoding": "mapping",
        "key": "t_address",
        "label": "mapping(address => uint256)",
        "numberOfBytes": "32",
        "value": "t_uint256"
      },
      "t_uint256": {
        "encoding": "inplace",
        "label": "uint256",
        "numberOfBytes": "32"
      }
    }
  }
}